{"abi":[{"type":"constructor","inputs":[],"stateMutability":"nonpayable"},{"type":"function","name":"INITIAL_ELO","inputs":[],"outputs":[{"name":"","type":"int256","internalType":"int256"}],"stateMutability":"view"},{"type":"function","name":"getAllMatchIds","inputs":[],"outputs":[{"name":"","type":"bytes32[]","internalType":"bytes32[]"}],"stateMutability":"view"},{"type":"function","name":"getAllPlayerIds","inputs":[],"outputs":[{"name":"","type":"bytes32[]","internalType":"bytes32[]"}],"stateMutability":"view"},{"type":"function","name":"getMatch","inputs":[{"name":"matchId","type":"bytes32","internalType":"bytes32"}],"outputs":[{"name":"id","type":"bytes32","internalType":"bytes32"},{"name":"winnerIds","type":"bytes32[]","internalType":"bytes32[]"},{"name":"loserIds","type":"bytes32[]","internalType":"bytes32[]"},{"name":"eloChange","type":"int256","internalType":"int256"},{"name":"timestamp","type":"uint256","internalType":"uint256"},{"name":"exists","type":"bool","internalType":"bool"}],"stateMutability":"view"},{"type":"function","name":"getMatchCount","inputs":[],"outputs":[{"name":"","type":"uint256","internalType":"uint256"}],"stateMutability":"view"},{"type":"function","name":"getMatchIdsPaginated","inputs":[{"name":"offset","type":"uint256","internalType":"uint256"},{"name":"limit","type":"uint256","internalType":"uint256"}],"outputs":[{"name":"","type":"bytes32[]","internalType":"bytes32[]"}],"stateMutability":"view"},{"type":"function","name":"getPlayer","inputs":[{"name":"playerId","type":"bytes32","internalType":"bytes32"}],"outputs":[{"name":"id","type":"bytes32","internalType":"bytes32"},{"name":"elo","type":"int256","internalType":"int256"},{"name":"wins","type":"uint256","internalType":"uint256"},{"name":"losses","type":"uint256","internalType":"uint256"},{"name":"exists","type":"bool","internalType":"bool"}],"stateMutability":"view"},{"type":"function","name":"getPlayerCount","inputs":[],"outputs":[{"name":"","type":"uint256","internalType":"uint256"}],"stateMutability":"view"},{"type":"function","name":"getPlayerIdsPaginated","inputs":[{"name":"offset","type":"uint256","internalType":"uint256"},{"name":"limit","type":"uint256","internalType":"uint256"}],"outputs":[{"name":"","type":"bytes32[]","internalType":"bytes32[]"}],"stateMutability":"view"},{"type":"function","name":"getPlayersBatch","inputs":[{"name":"_playerIds","type":"bytes32[]","internalType":"bytes32[]"}],"outputs":[{"name":"ids","type":"bytes32[]","internalType":"bytes32[]"},{"name":"elos","type":"int256[]","internalType":"int256[]"},{"name":"wins","type":"uint256[]","internalType":"uint256[]"},{"name":"losses","type":"uint256[]","internalType":"uint256[]"}],"stateMutability":"view"},{"type":"function","name":"logMatch","inputs":[{"name":"matchId","type":"bytes32","internalType":"bytes32"},{"name":"winnerIds","type":"bytes32[]","internalType":"bytes32[]"},{"name":"loserIds","type":"bytes32[]","internalType":"bytes32[]"},{"name":"eloChange","type":"int256","internalType":"int256"}],"outputs":[],"stateMutability":"nonpayable"},{"type":"function","name":"matchExists","inputs":[{"name":"matchId","type":"bytes32","internalType":"bytes32"}],"outputs":[{"name":"","type":"bool","internalType":"bool"}],"stateMutability":"view"},{"type":"function","name":"owner","inputs":[],"outputs":[{"name":"","type":"address","internalType":"address"}],"stateMutability":"view"},{"type":"function","name":"playerExists","inputs":[{"name":"playerId","type":"bytes32","internalType":"bytes32"}],"outputs":[{"name":"","type":"bool","internalType":"bool"}],"stateMutability":"view"},{"type":"function","name":"registerPlayer","inputs":[{"name":"playerId","type":"bytes32","internalType":"bytes32"}],"outputs":[],"stateMutability":"nonpayable"},{"type":"function","name":"registerPlayersBatch","inputs":[{"name":"_playerIds","type":"bytes32[]","internalType":"bytes32[]"}],"outputs":[],"stateMutability":"nonpayable"},{"type":"function","name":"transferOwnership","inputs":[{"name":"newOwner","type":"address","internalType":"address"}],"outputs":[],"stateMutability":"nonpayable"},{"type":"event","name":"MatchLogged","inputs":[{"name":"matchId","type":"bytes32","indexed":true,"internalType":"bytes32"},{"name":"winnerIds","type":"bytes32[]","indexed":false,"internalType":"bytes32[]"},{"name":"loserIds","type":"bytes32[]","indexed":false,"internalType":"bytes32[]"},{"name":"eloChange","type":"int256","indexed":false,"internalType":"int256"},{"name":"timestamp","type":"uint256","indexed":false,"internalType":"uint256"}],"anonymous":false},{"type":"event","name":"OwnershipTransferred","inputs":[{"name":"previousOwner","type":"address","indexed":true,"internalType":"address"},{"name":"newOwner","type":"address","indexed":true,"internalType":"address"}],"anonymous":false},{"type":"event","name":"PlayerRegistered","inputs":[{"name":"playerId","type":"bytes32","indexed":true,"internalType":"bytes32"},{"name":"initialElo","type":"int256","indexed":false,"internalType":"int256"}],"anonymous":false},{"type":"event","name":"PlayerStatsUpdated","inputs":[{"name":"playerId","type":"bytes32","indexed":true,"internalType":"bytes32"},{"name":"newElo","type":"int256","indexed":false,"internalType":"int256"},{"name":"wins","type":"uint256","indexed":false,"internalType":"uint256"},{"name":"losses","type":"uint256","indexed":false,"internalType":"uint256"}],"anonymous":false}],"bytecode":{"object":"0x608060405234801561000f575f80fd5b505f80546001600160a01b0319163390811782556040519091907f8be0079c531659141344cd1fd0a4f28419497f9722a3daafe3b4186f6b6457e0908290a361179c8061005b5f395ff3fe608060405234801561000f575f80fd5b5060043610610106575f3560e01c8063a93452401161009e578063d526082f1161006e578063d526082f146102a4578063ee464b92146102ad578063f2b8e2e1146102b5578063f2fde38b146102c8578063fcc6077d146102db575f80fd5b8063a93452401461022f578063b139085d14610264578063c2e5220614610289578063cce432de14610291575f80fd5b806385e78f85116100d957806385e78f85146101715780638996e7dc146101de5780638c4f7dae146101f35780638da5cb5b14610205575f80fd5b8063268f35c61461010a5780634ad7b6fe146101365780636a0168501461014b5780637ec0269d1461015e575b5f80fd5b61011d6101183660046113c0565b610300565b60405161012d9493929190611438565b60405180910390f35b61013e6104f8565b60405161012d91906114b5565b61013e6101593660046114ce565b61054e565b61013e61016c3660046114ce565b610664565b6101b461017f3660046114ee565b5f908152600160208190526040909120805491810154600282015460038301546004909301549394919390929160ff90911690565b6040805195865260208601949094529284019190915260608301521515608082015260a00161012d565b6101f16101ec3660046114ee565b610742565b005b6004545b60405190815260200161012d565b5f54610217906001600160a01b031681565b6040516001600160a01b03909116815260200161012d565b61025461023d3660046114ee565b5f9081526002602052604090206005015460ff1690565b604051901515815260200161012d565b6102546102723660046114ee565b5f9081526001602052604090206004015460ff1690565b6003546101f7565b6101f161029f366004611505565b6108f0565b6101f76104b081565b61013e610fad565b6101f16102c33660046113c0565b611001565b6101f16102d6366004611581565b61119c565b6102ee6102e93660046114ee565b611280565b60405161012d969594939291906115a7565b6060808080848067ffffffffffffffff81111561031f5761031f6115f2565b604051908082528060200260200182016040528015610348578160200160208202803683370190505b5094508067ffffffffffffffff811115610364576103646115f2565b60405190808252806020026020018201604052801561038d578160200160208202803683370190505b5093508067ffffffffffffffff8111156103a9576103a96115f2565b6040519080825280602002602001820160405280156103d2578160200160208202803683370190505b5092508067ffffffffffffffff8111156103ee576103ee6115f2565b604051908082528060200260200182016040528015610417578160200160208202803683370190505b5091505f5b818110156104ed575f60015f8a8a8581811061043a5761043a611606565b9050602002013581526020019081526020015f209050805f015487838151811061046657610466611606565b602002602001018181525050806001015486838151811061048957610489611606565b60200260200101818152505080600201548583815181106104ac576104ac611606565b60200260200101818152505080600301548483815181106104cf576104cf611606565b602090810291909101015250806104e58161162e565b91505061041c565b505092959194509250565b6060600480548060200260200160405190810160405280929190818152602001828054801561054457602002820191905f5260205f20905b815481526020019060010190808311610530575b5050505050905090565b600354606090831061058d575f5b604051908082528060200260200182016040528015610585578160200160208202803683370190505b50905061065e565b5f6105988385611646565b6003549091508111156105aa57506003545b5f6105b58583611659565b67ffffffffffffffff8111156105cd576105cd6115f2565b6040519080825280602002602001820160405280156105f6578160200160208202803683370190505b509050845b82811015610659576003818154811061061657610616611606565b905f5260205f20015482878361062c9190611659565b8151811061063c5761063c611606565b6020908102919091010152806106518161162e565b9150506105fb565b509150505b92915050565b6004546060908310610676575f61055c565b5f6106818385611646565b60045490915081111561069357506004545b5f61069e8583611659565b67ffffffffffffffff8111156106b6576106b66115f2565b6040519080825280602002602001820160405280156106df578160200160208202803683370190505b509050845b8281101561065957600481815481106106ff576106ff611606565b905f5260205f2001548287836107159190611659565b8151811061072557610725611606565b60209081029190910101528061073a8161162e565b9150506106e4565b5f546001600160a01b031633146107745760405162461bcd60e51b815260040161076b9061166c565b60405180910390fd5b806107c15760405162461bcd60e51b815260206004820152601b60248201527f506f6e6752616e6b3a20696e76616c696420706c617965722049440000000000604482015260640161076b565b5f8181526001602052604090206004015460ff16156108225760405162461bcd60e51b815260206004820152601f60248201527f506f6e6752616e6b3a20706c6179657220616c72656164792065786973747300604482015260640161076b565b6040805160a0810182528281526104b060208083018281525f848601818152606086018281526001608088018181528a855281875289852098518955945188820155915160028801555160038088019190915592516004909601805460ff19169615159690961790955581549485018255527fc2575a0e9e593c00f959f8c92f12db2869c3395a3b0502d05e2516446f71f85b909201849055915191825282917fe0ad607099c369288cd70bd5a2c8ff7a70f08b89af62622a084ddad4a2c2f906910160405180910390a250565b5f546001600160a01b031633146109195760405162461bcd60e51b815260040161076b9061166c565b856109665760405162461bcd60e51b815260206004820152601a60248201527f506f6e6752616e6b3a20696e76616c6964206d61746368204944000000000000604482015260640161076b565b5f8681526002602052604090206005015460ff16156109c75760405162461bcd60e51b815260206004820152601e60248201527f506f6e6752616e6b3a206d6174636820616c7265616479206578697374730000604482015260640161076b565b83158015906109d7575060028411155b610a235760405162461bcd60e51b815260206004820152601e60248201527f506f6e6752616e6b3a20696e76616c69642077696e6e657220636f756e740000604482015260640161076b565b8115801590610a33575060028211155b610a7f5760405162461bcd60e51b815260206004820152601d60248201527f506f6e6752616e6b3a20696e76616c6964206c6f73657220636f756e74000000604482015260640161076b565b838214610ace5760405162461bcd60e51b815260206004820152601c60248201527f506f6e6752616e6b3a207465616d2073697a65206d69736d6174636800000000604482015260640161076b565b5f811215610b305760405162461bcd60e51b815260206004820152602960248201527f506f6e6752616e6b3a20454c4f206368616e6765206d757374206265206e6f6e6044820152682d6e6567617469766560b81b606482015260840161076b565b5f5b84811015610bd65760015f878784818110610b4f57610b4f611606565b602090810292909201358352508101919091526040015f206004015460ff16610bc45760405162461bcd60e51b815260206004820152602160248201527f506f6e6752616e6b3a2077696e6e657220706c61796572206e6f7420666f756e6044820152601960fa1b606482015260840161076b565b80610bce8161162e565b915050610b32565b505f5b82811015610c735760015f858584818110610bf657610bf6611606565b602090810292909201358352508101919091526040015f206004015460ff16610c615760405162461bcd60e51b815260206004820181905260248201527f506f6e6752616e6b3a206c6f73657220706c61796572206e6f7420666f756e64604482015260640161076b565b80610c6b8161162e565b915050610bd9565b505f86815260026020526040812087815560038101839055426004820155600501805460ff191660011790555b84811015610cfd575f878152600260205260409020600101868683818110610cca57610cca611606565b83546001810185555f94855260209485902091909402929092013591909201555080610cf58161162e565b915050610ca0565b505f5b82811015610d5e575f87815260026020819052604090912001848483818110610d2b57610d2b611606565b83546001810185555f94855260209485902091909402929092013591909201555080610d568161162e565b915050610d00565b50600480546001810182555f9182527f8a35acfbc15ff81a39ae7d344fd709f28e8600b4aa8c65c6b64bfe7fe36bd19b018790555b84811015610e79575f868683818110610dae57610dae611606565b9050602002013590508260015f8381526020019081526020015f206001015f828254610dda91906116ad565b90915550505f8181526001602081905260408220600201805491929091610e02908490611646565b90915550505f8181526001602081815260409283902091820154600283015460039093015484519182529181019290925281830152905182917faff67473021c63d5d7950d7b8201e64a384cf7b6f668a799bdaad0961e33ebaf919081900360600190a25080610e718161162e565b915050610d93565b505f5b82811015610f62575f848483818110610e9757610e97611606565b9050602002013590508260015f8381526020019081526020015f206001015f828254610ec391906116d4565b90915550505f8181526001602081905260408220600301805491929091610eeb908490611646565b90915550505f8181526001602081815260409283902091820154600283015460039093015484519182529181019290925281830152905182917faff67473021c63d5d7950d7b8201e64a384cf7b6f668a799bdaad0961e33ebaf919081900360600190a25080610f5a8161162e565b915050610e7c565b50857f1378453199f99dc719d1adb11d5fa876794cf01fc7e9e5cf4712c393a0f261ea868686868642604051610f9d9695949392919061172a565b60405180910390a2505050505050565b6060600380548060200260200160405190810160405280929190818152602001828054801561054457602002820191905f5260205f2090815481526020019060010190808311610530575050505050905090565b5f546001600160a01b0316331461102a5760405162461bcd60e51b815260040161076b9061166c565b5f5b81811015611197575f83838381811061104757611047611606565b602002919091013591508190506110a05760405162461bcd60e51b815260206004820152601b60248201527f506f6e6752616e6b3a20696e76616c696420706c617965722049440000000000604482015260640161076b565b5f8181526001602052604090206004015460ff16611184576040805160a0810182528281526104b060208083018281525f848601818152606086018281526001608088018181528a855281875289852098518955945188820155915160028801555160038088019190915592516004909601805460ff19169615159690961790955581549485018255527fc2575a0e9e593c00f959f8c92f12db2869c3395a3b0502d05e2516446f71f85b909201849055915191825282917fe0ad607099c369288cd70bd5a2c8ff7a70f08b89af62622a084ddad4a2c2f906910160405180910390a25b508061118f8161162e565b91505061102c565b505050565b5f546001600160a01b031633146111c55760405162461bcd60e51b815260040161076b9061166c565b6001600160a01b0381166112275760405162461bcd60e51b815260206004820152602360248201527f506f6e6752616e6b3a206e6577206f776e6572206973207a65726f206164647260448201526265737360e81b606482015260840161076b565b5f80546040516001600160a01b03808516939216917f8be0079c531659141344cd1fd0a4f28419497f9722a3daafe3b4186f6b6457e091a35f80546001600160a01b0319166001600160a01b0392909216919091179055565b5f6060805f805f8060025f8981526020019081526020015f209050805f0154816001018260020183600301548460040154856005015f9054906101000a900460ff168480548060200260200160405190810160405280929190818152602001828054801561130b57602002820191905f5260205f20905b8154815260200190600101908083116112f7575b505050505094508380548060200260200160405190810160405280929190818152602001828054801561135b57602002820191905f5260205f20905b815481526020019060010190808311611347575b505050505093509650965096509650965096505091939550919395565b5f8083601f840112611388575f80fd5b50813567ffffffffffffffff81111561139f575f80fd5b6020830191508360208260051b85010111156113b9575f80fd5b9250929050565b5f80602083850312156113d1575f80fd5b823567ffffffffffffffff8111156113e7575f80fd5b6113f385828601611378565b90969095509350505050565b5f8151808452602080850194508084015f5b8381101561142d57815187529582019590820190600101611411565b509495945050505050565b608081525f61144a60808301876113ff565b8281036020848101919091528651808352878201928201905f5b8181101561148057845183529383019391830191600101611464565b5050848103604086015261149481886113ff565b9250505082810360608401526114aa81856113ff565b979650505050505050565b602081525f6114c760208301846113ff565b9392505050565b5f80604083850312156114df575f80fd5b50508035926020909101359150565b5f602082840312156114fe575f80fd5b5035919050565b5f805f805f806080878903121561151a575f80fd5b86359550602087013567ffffffffffffffff80821115611538575f80fd5b6115448a838b01611378565b9097509550604089013591508082111561155c575f80fd5b5061156989828a01611378565b979a9699509497949695606090950135949350505050565b5f60208284031215611591575f80fd5b81356001600160a01b03811681146114c7575f80fd5b86815260c060208201525f6115bf60c08301886113ff565b82810360408401526115d181886113ff565b606084019690965250506080810192909252151560a0909101529392505050565b634e487b7160e01b5f52604160045260245ffd5b634e487b7160e01b5f52603260045260245ffd5b634e487b7160e01b5f52601160045260245ffd5b5f6001820161163f5761163f61161a565b5060010190565b8082018082111561065e5761065e61161a565b8181038181111561065e5761065e61161a565b60208082526021908201527f506f6e6752616e6b3a2063616c6c6572206973206e6f7420746865206f776e656040820152603960f91b606082015260800190565b8082018281125f8312801582168215821617156116cc576116cc61161a565b505092915050565b8181035f8312801583831316838312821617156116f3576116f361161a565b5092915050565b8183525f6001600160fb1b03831115611711575f80fd5b8260051b80836020870137939093016020019392505050565b608081525f61173d60808301888a6116fa565b82810360208401526117508187896116fa565b604084019590955250506060015294935050505056fea26469706673582212200dbe3bb773368a2931a5668b7c5b91a773ce32dbab638dabc2d8318d638effce64736f6c63430008140033","linkReferences":{}},"methodIdentifiers":{"INITIAL_ELO()":"d526082f","getAllMatchIds()":"4ad7b6fe","getAllPlayerIds()":"ee464b92","getMatch(bytes32)":"fcc6077d","getMatchCount()":"8c4f7dae","getMatchIdsPaginated(uint256,uint256)":"7ec0269d","getPlayer(bytes32)":"85e78f85","getPlayerCount()":"c2e52206","getPlayerIdsPaginated(uint256,uint256)":"6a016850","getPlayersBatch(bytes32[])":"268f35c6","logMatch(bytes32,bytes32[],bytes32[],int256)":"cce432de","matchExists(bytes32)":"a9345240","owner()":"8da5cb5b","playerExists(bytes32)":"b139085d","registerPlayer(bytes32)":"8996e7dc","registerPlayersBatch(bytes32[])":"f2b8e2e1","transferOwnership(address)":"f2fde38b"},"id":21}